:020000040800F2
:10000000D011002085020008092400080B240008F4
:100010000F24000813240008172400080000000023
:100020000000000000000000000000001B24000889
:100030001D240008000000001F24000821240008DF
:100040009F0200089F0200089F0200089F0200080C
:100050009F0200089F0200089F0200089F020008FC
:100060009F0200089F0200089F0200089F020008EC
:100070009F0200089F0200089F0200089F020008DC
:100080009F0200089F0200089F0200089F020008CC
:100090006D5C00089F0200089F0200089F02000894
:1000A0009F0200089F0200089F0200089F020008AC
:1000B0009F020008971E00089F0200089F02000888
:1000C0009F0200089F0200089F0200089F0200088C
:1000D0009F02000847200008252100083B22000855
:1000E0009F0200089F020008615C000800F002F80F
:1000F00000F0B9F80AA090E8000C82448344AAF109
:100100000107DA4501D100F0AEF8AFF2090EBAE806
:100110000F0013F0010F18BFFB1A43F0010318473B
:1001200004810000248100000A444FF0000C10F804
:10013000013B13F0070408BF10F8014B1D1108BF65
:1001400010F8015B641E05D010F8016B641E01F805
:10015000016BF9D113F0080F1EBF10F8014BAD1C55
:100160000C1B09D16D1E58BF01F801CBFAD505E073
:1001700014F8016B01F8016B6D1EF9D59142D6D3CD
:10018000704700000023002400250026103A28BFF5
:1001900078C1FBD8520728BF30C148BF0B607047F9
:1001A0006E2906F0F684702906F0BD82662907F0F4
:1001B0000D87652907F00A87672907F007876129F6
:1001C000AFF3008003681B0A28BF41F08001692952
:1001D00006F02E82642906F02B82752906F028820B
:1001E0006F2906F0C785782906F08982E92906F08B
:1001F0006185E42906F05E85F52906F05B85EF2927
:1002000006F0C485F82906F088820368DB0928BF58
:1002100041F08001632907F0CE80732907F0D38075
:10022000E32907F0DE80F32907F0E3800020704720
:100230001FB59DE8030006F005FE07F02BF904004A
:100240000020002107F0ACFE401C6060002000216F
:1002500007F090FEE06006F0C1FB1FBD10B5002066
:1002600007F05FFE10BD07F0E8F81146FFF7E0FF6A
:1002700002F032F807F0DAF903B4FFF7EFFF03BC3E
:1002800001F068FE0948804709480047FEE7FEE79D
:10029000FEE7FEE7FEE7FEE7FEE7FEE7FEE7FEE736
:1002A00004480549054A064B704700002B25000805
:1002B000ED000008D00B0020D0110020D00D002050
:1002C000D00D002031490143314A1160704770B5AB
:1002D000002100230F22C47804B32D4C246804F4B9
:1002E000E064C4F5E064210AC1F10403CA40447823
:1002F00004FA03F18478144021430901254C06785F
:10030000A155047804F01F050124AC4005786D1157
:10031000AD0005F1E025C5F8004109E0047804F0DE
:100320001F050124AC401C4D0678761145F8264087
:1003300070BD1A4A0A400243154B1B1F1A607047D2
:1003400039B1134A121D12680243114B1B1D1A606A
:1003500006E00F4A121D126882430D4B1B1D1A60E6
:100360007047042808D14FF0E021096941F00401E9
:100370004FF0E022116107E04FF0E021096921F020
:1003800004014FF0E0221161704700000000FA05FF
:100390000CED00E000E400E080E100E080FFFF1FE2
:1003A00010B50446CC48844208D10121042000F055
:1003B0002DFB0021042000F029FB46E0C7488442C1
:1003C00008D10121082000F021FB0021082000F0C5
:1003D0001DFB3AE0C248844208D10121102000F000
:1003E00015FB0021102000F011FB2EE0BD488442D7
:1003F00008D10121202000F009FB0021202000F07D
:1004000005FB22E0B848844208D10121402000F0D9
:10041000FDFA0021402000F0F9FA16E0B3488442CA
:1004200008D10121802000F0F1FA0021802000F0A5
:10043000EDFA0AE0AE48844207D10121801500F0B0
:10044000E5FA0021A01500F0E1FA10BD10B5012178
:10045000084600F0DBFA0021012000F0D7FA10BDB9
:100460002DE9F0410246002500260020002300244B
:10047000002791F803C00CF00F0591F803C00CF0B1
:10048000100CBCF1000F03D091F802C04CEA050536
:1004900091F800C0BCF1000F31D0146800202BE0AF
:1004A0004FF0010C0CFA00F3B1F800C00CEA03069F
:1004B0009E4220D183004FF00F0C0CFA03F7BC438F
:1004C00005FA03FC4CEA040491F803C0BCF1280FC0
:1004D00006D14FF0010C0CFA00FCC2F814C00AE07F
:1004E00091F803C0BCF1480F05D14FF0010C0CFA94
:1004F00000FCC2F810C0401C0828D1D31460B1F829
:1005000000C0BCF1FF0F34DD546800202EE000F184
:10051000080C4FF0010808FA0CF3B1F800C00CEA1F
:1005200003069E4221D183004FF00F0C0CFA03F713
:10053000BC4305FA03FC4CEA040491F803C0BCF187
:10054000280F05D100F1080C08FA0CF8C2F8148045
:1005500091F803C0BCF1480F07D100F1080C4FF02F
:10056000010808FA0CF8C2F81080401C0828CED305
:100570005460BDE8F0814FF6FF7101800221817067
:100580000421C17070470246002093680B400BB1F4
:10059000012000E0002070470146886880B2704763
:1005A00002460020D3680B400BB1012000E0002080
:1005B00070470146C86880B2704701617047416169
:1005C00070470AB1016100E041617047C160704746
:1005D0004FF480320A43826181618261826982695B
:1005E000704702460020434B18684FF6807318404E
:1005F00040EA021008433F4B186070473E49C8610B
:100600007047F0B50A46002300240021002500F0C1
:100610000046B6F1004F02D1364EF16901E0354E89
:100620007168C0F3034583B200F44016B6F5401F6D
:1006300008D121F070612F4E766826F070662D4F3C
:100640007E6012E000F48016B6F5801F06D1032606
:1006500006FA05F4A14341F0706106E0460D36014B
:1006600003FA06F6B14341F0706122B1460D36013E
:1006700003FA06F6314300F00046B6F1004F02D10E
:100680001C4EF16101E01B4E7160F0BD30B50022DF
:100690008B071C0F0F2303FA04F2164B08338C1040
:1006A00053F824309343134C08348D1044F825300C
:1006B00023468C1053F824308C07240F00FA04F4DE
:1006C00023430C4C08348D1044F8253030BD0A49C2
:1006D000DC3108607047000000080140000C014058
:1006E000001001400014014000180140001C0140AE
:1006F000002001400000014000002042DF48006867
:1007000040F00100DD49086008464068DC490840C7
:10071000DA49486008460068DA490840D749086065
:100720000846006820F4802008600846406820F4ED
:10073000FE0048604FF41F0088607047CF49096889
:1007400021F48031CD4A11601146096821F48021DD
:100750001160B0F5803F03D0B0F5802F0ED106E0D8
:10076000C649096841F48031C44A116007E0C349B1
:10077000096841F4A021C14A116000E000BF00BF38
:10078000704710B501460022002300204A11012ABB
:1007900002D1BA4C236806E0022A02D1B74C236A80
:1007A00001E0B64C636A01F01F02012494401C4032
:1007B0000CB1012000E0002010BD38B500200090F1
:1007C0000024002500BF3120FFF7DBFF054600981D
:1007D000401C00900098B0F5A06F01D0002DF2D021
:1007E0003120FFF7CEFF08B1012400E000242046AD
:1007F00038BD01460020A14A106820F0F80040EA08
:10080000C10010607047A049086070470246002090
:100810009A4B586820F47C1042EA01031843974B26
:100820005860704798490866704701460020934A0F
:10083000506820F003000843506070478F484068BC
:1008400000F00C007047014600208C4A506820F0F0
:10085000F00008435060704701460020874A506806
:1008600020F4E06008435060704701460020834A4E
:10087000506820F4605040EAC1005060704729B1D0
:100880007E4A527A02437D4B5A7204E07B4A527A86
:1008900082437A4B5A7270477B49D831086070475F
:1008A00001460020754A506820F4404008435060DB
:1008B00070470021714A20321170704A82F820106E
:1008C000012802D004280AD104E001216B4A203219
:1008D000117005E00521694A2032117000E000BF67
:1008E00000BF70476949086070476449096A01435D
:1008F000624A11627047654944390860704730B5F3
:1009000000210022002400235C4D6D6805F00C01DD
:1009100021B1042905D0082923D105E05C4D0560EB
:1009200022E05C4D05601FE0544D6D6805F47012C7
:10093000524D6D6805F48034022505EB92421CB9D6
:10094000554D554305600BE04C4D6D6805F4003581
:100950001DB1524D5543056002E04E4D55430560B3
:1009600002E04B4D056000BF00BF444D6D6805F0CF
:10097000F00109094A4D6B5C0568DD4045603F4D5B
:100980006D6805F4E061090A454D6B5C4568DD4022
:1009900085603A4D6D6805F46051C90A404D6B5C45
:1009A0004568DD40C560354D6D6805F44041890BF3
:1009B0003C4D6B5CC568B5FBF3F5056130BD29B1F5
:1009C0002E4A526902432D4B5A6104E02B4A526968
:1009D00082432A4B5A61704729B1284A92690243DF
:1009E000264B9A6104E0254A92698243234B9A611F
:1009F000704729B1214AD2690243204BDA6104E0F1
:100A00001E4AD26982431D4BDA61704729B11B4AE5
:100A1000D2680243194BDA6004E0184AD268824374
:100A2000164BDA60704729B1144A12690243134B1E
:100A30001A6104E0114A12698243104B1A6170472F
:100A400012494039086070470F49C86470470B4924
:100A5000C87170470948406A40F080700749486291
:100A6000704701460020054A92680A400AB10120F9
:100A700000E0002070470149887270470010024072
:100A80000000FFF8FFFFF6FE0000424280044242F1
:100A900000127A00001BB70000093D00808D5B004A
:100AA000000000201000002010B50446FE488442DB
:100AB00008D10121C014FFF7A9FF0021E014FFF7BE
:100AC000A5FFC4E0B4F1804F08D101210846FFF72B
:100AD000AAFF00210120FFF7A6FFB8E0F3488442F7
:100AE00008D101210220FFF79EFF00210220FFF71D
:100AF0009AFFACE0EE48844208D101210420FFF7C0
:100B000092FF00210420FFF78EFFA0E0E948844215
:100B100008D101210820FFF786FF00210820FFF7F8
:100B200082FF94E0E448844208D101211020FFF7BD
:100B30007AFF00211020FFF776FF88E0DF4884422B
:100B400008D101212020FFF76EFF00212020FFF7B0
:100B50006AFF7CE0DA48844208D101214014FFF7A3
:100B600055FF00216014FFF751FF70E0D548844223
:100B700009D10121C804FFF749FF00214FF40020EB
:100B8000FFF744FF63E0D048844209D10121080502
:100B9000FFF73CFF00214FF48010FFF737FF56E0CE
:100BA000CA48844209D101214805FFF72FFF0021DF
:100BB0004FF40010FFF72AFF49E0C548844208D1EE
:100BC00001214020FFF72FFF00214020FFF72BFFDE
:100BD0003DE0C048844208D101218020FFF723FF77
:100BE00000218020FFF71FFF31E0BB48844208D17D
:100BF00001218015FFF717FF0021A015FFF713FF54
:100C000025E0B648844209D101210804FFF7FEFE21
:100C100000214FF48030FFF7F9FE18E0B04884421D
:100C200009D101214804FFF7F1FE00214FF4003003
:100C3000FFF7ECFE0BE0AB48844208D101218804A9
:100C4000FFF7E4FE00214FF48020FFF7DFFE10BD28
:100C500000220288944B98420ED0994B98420BD0B8
:100C6000B0F1804F08D0914B984205D0904B9842FC
:100C700002D0904B984204D14FF68F731A404B88A4
:100C80001A438D4B984207D08C4B984204D04FF6B4
:100C9000FF431A40CB881A4302808B8883850B88D8
:100CA0000385814B98420BD0854B984208D08B4BE3
:100CB000984205D08A4B984202D08A4B984201D183
:100CC0000B7A038601238382704770B500240022CB
:100CD0000023058C4FF6FE7635400584028C838810
:100CE000048B4FF68F752C40B51E2C400D882C437D
:100CF000751E2A400D892A434D882A436A4DA84211
:100D00000BD06F4DA84208D0744DA84205D0744D49
:100D1000A84202D0734DA84213D14FF6F7752A406E
:100D20004D892A434FF6FB752A408D882A434FF69A
:100D3000FF652B404FF6FF552B408D892B43CD8906
:100D40002B4383800483CD888586028470BD70B573
:100D5000002400220023058C4FF6EF7635400584F1
:100D6000028C8388048B48F6FF752C404FF6FF45B4
:100D70002C400D884FF6FF7606EA05252C434FF6EA
:100D8000DF752A400D8906EA05152A434D8806EAD3
:100D900005152A43444DA84202D0494DA8421DD111
:100DA0004FF67F752A404D894FF6FF7606EA051506
:100DB0002A434FF6BF752A408D8806EA05152A4357
:100DC0004FF6FF352B404FF2FF752B408D8906EA19
:100DD00085052B43CD8906EA85052B438380048353
:100DE000CD880587028470BD70B5002400220023E1
:100DF000058C4FF6FF6635400584028C8388848B12
:100E00004FF68F752C404FF6FC752C400D882C4307
:100E10004FF6FF552A400D894FF6FF7606EA052565
:100E20002A434D8806EA05252A431F4DA84202D0D1
:100E3000234DA8421DD14FF2FF752A404D894FF630
:100E4000FF7606EA05252A434FF6FF352A408D88AE
:100E500006EA05252A434EF6FF752B404DF6FF7531
:100E60002B408D8906EA05152B43CD8906EA051529
:100E70002B4383808483CD888587028470BD70B5C1
:100E8000002200230024058C4EF6FF7635400584B1
:100E9000038C8488828B48F6FF752A404FF6FF4505
:100EA0002A400D8820E00000002C01400004004092
:100EB00000080040000C00400010004000140040FA
:100EC00000340140004C01400050014000540140FA
:100ED00000180040001C004000200040004001407D
:100EE00000440140004801404FF6FF7606EA052520
:100EF0002A434DF6FF752B400D8906EA05352B4335
:100F00004D8806EA05352B43FA4DA84202D0FA4D2A
:100F1000A84208D14BF6FF752C408D894FF6FF761D
:100F200006EA85152C4384808283CD88A0F8405042
:100F3000038470BD828B4FF2FF331A408283828B11
:100F40004FF6FF7303EA01231A4382837047F0B51B
:100F50000C461546002200210026078C4EF6FF7C29
:100F600007EA0C070784828B018C4FF6FF7707EAAC
:100F7000043640F6FF473A404FF6FF7707EA052769
:100F80003A434FF6FF7707EA03373A43D94FB8425F
:100F90000ED0D94FB8420BD0B0F1804F08D0D74F08
:100FA000B84205D0D64FB84202D0D64FB84206D18B
:100FB0004DF6FF77394046F48057394305E047F650
:100FC000FF57394044F48057394382830184F0BD90
:100FD000828B4FF6F3731A408283828B0A4382839B
:100FE0007047F0B50C461546002200210026078CFC
:100FF0004FF6FF6C07EA0C070784828B018C4FF6D3
:10100000FF7707EA04264FF60C773A404FF6FF7752
:1010100007EA03172F433A43B64FB8420ED0B64FF4
:10102000B8420BD0B0F1804F08D0B44FB84205D0D1
:10103000B34FB84202D0B34FB84206D14FF6FF5774
:10104000394046F48077394305E04FF2FF57394085
:1010500044F48077394382830184F0BD028B4FF2E0
:10106000FF331A400283028B4FF6FF7303EA01231A
:101070001A4302837047F0B50C4615460022002142
:101080000026078C4FF6EF7C07EA0C070784028BDB
:10109000018C4FF6FF7707EA041640F6FF473A4007
:1010A0004FF6FF7707EA03373A434FF6FF7707EA31
:1010B00005273A438F4FB8420ED08F4FB8420BD01E
:1010C000B0F1804F08D08D4FB84205D08C4FB84258
:1010D00002D08C4FB84206D14FF6DF77394046F048
:1010E0001007394305E04FF65F77394044F01007A9
:1010F000394302830184F0BD028B4FF6F3731A402B
:101100000283028B0A4302837047F0B50C461546F2
:1011100000220021068C4FF6FE773E400684028BAB
:10112000018C4FF60C7632407E1C06EA03162E43E5
:101130003243704EB0420ED06F4EB0420BD0B0F181
:10114000804F08D06D4EB04205D06D4EB04202D0F7
:101150006C4EB04206D14FF6FD76314044F00106A8
:10116000314305E04FF6F576314044F00106314356
:1011700002830184F0BD70B505460C465D4885428A
:101180000ED05D4885420BD0B5F1804F08D05B484A
:10119000854205D05A48854202D05A48854200D13E
:1011A00000E000BF208850B92389A28861882846C2
:1011B000FFF7ABFFE1882846FFF79EFF25E0208878
:1011C00004280AD12389A28861882846FFF753FFA3
:1011D000E1882846FFF742FF17E0208808280AD157
:1011E0002389A28861882846FFF7FBFEE18828460C
:1011F000FFF7EEFE09E02389A28861882846FFF701
:10120000A6FEE1882846FFF795FE70BD2DE9F04166
:1012100005460C4600260127608808B9022600E032
:101220000026A088012801D1022700E0012720889C
:10123000A0B92389A28861882846FFF766FFE18864
:101240002846FFF759FF23893A4631462846FFF7DB
:1012500012FFE1882846FFF701FF13E02389A288E7
:1012600061882846FFF707FFE1882846FFF7F6FE6A
:1012700023893A4631462846FFF747FFE18828464A
:10128000FFF73AFFBDE8F0810A884B881A438B8844
:101290001A43CB881A430B891A434B891A438B890B
:1012A0001A43A0F8442070474FF6FF718180002157
:1012B0000180C1804180017270470021018041801E
:1012C0008180C180018141818181C181704700217C
:1012D00001804180012181800021C180018170470E
:1012E0000021018041808180C18001814181818113
:1012F00070470000002C0140003401400004004011
:1013000000080040000C004021B1028842F00102B8
:10131000028004E002884FF6FE731A400280704794
:1013200031B1B0F8442042F40042A0F8442005E076
:10133000B0F84420C2F30E02A0F8442070471AB15E
:1013400083890B43838102E083898B4383817047C8
:101350008182704741EA0203A0F8483070471AB111
:1013600083890B43838102E083898B4383817047A8
:1013700001894FF6F8721140018170470A46002139
:1013800001894FF68F73194011430181704730B5C1
:1013900004460D4629462046FFF7F0FF208940F01D
:1013A0000700208130BD2DE9F04104460D46164668
:1013B0001F46602D06D13B46012231462046FFF7ED
:1013C0005AFE05E03B46012231462046FFF79DFECE
:1013D00029462046FFF7D2FF208940F007002081F0
:1013E000BDE8F08130B50C4600210189C9B24FF645
:1013F000FF7505EA0325154325432943018130BDC7
:101400002DE9F04105460E4617469846002443460E
:101410003A4631462846FFF7E5FF2C894FF6F8702B
:10142000044044F007044FF68F70044044F0700409
:101430002C81BDE8F081F0B504460D4616461F46E6
:101440003B46324629462046FFF7CCFF208940F430
:1014500080402081F0BD0185828270470A460021CC
:1014600001884FF68F731940114301807047F0B522
:101470000C4615461E460021002200230189028BDE
:10148000038C4FF6F877394021434FF6FC473A403A
:1014900040F201173A434FF6DD773B404FF6FF77B6
:1014A00007EA06172F433B43018102830384F0BD03
:1014B0000A460021018B4FF68F73194011430183B7
:1014C00070470A460021018B48F6FF7319404FF61A
:1014D000FF7303EA02231943018370470A46002180
:1014E000818B4FF68F7319401143818370470A46F1
:1014F0000021818B48F6FF7319404FF6FF7303EA12
:10150000022319438183704721B1028842F080028F
:10151000028004E002884FF67F731A400280704711
:1015200021B1828842F00402828004E082884FF672
:10153000FB731A408280704721B1828842F0080212
:10154000828004E082884FF6F7731A4082807047E9
:1015500021B1828842F00102828004E082884FF645
:10156000FE731A40828070470A460021018B4FF6B5
:10157000F77319401143018370470A460021018B1C
:101580004FF2FF7319404FF6FF7303EA022319432A
:10159000018370470A460021818B4FF6F77319408B
:1015A0001143818370470A460021818B4FF2FF73FC
:1015B00019404FF6FF7303EA0223194381837047F2
:1015C0000A460021018B4FF6FB731940114301833A
:1015D00070470A460021018B4FF6FF3319404FF642
:1015E000FF7303EA02231943018370470A4600216F
:1015F000818B4FF6FB7319401143818370470A4674
:101600000021818B4FF6FF3319404FF6FF7303EA39
:1016100002231943818370470A460021018B4FF64C
:101620007F7319401143018370470A460021018BE3
:10163000C1F30E014FF6FF7303EA0223194301833E
:1016400070470A460021818B4FF67F731940114382
:10165000818370470A460021818BC1F30E014FF64A
:10166000FF7303EA02231943818370470A4600216E
:10167000018C4FF6FD7319401143018470470A46EF
:101680000021018C4FF6F773194011430184704714
:101690000A460021018C4FF6DF7319404FF6FF73A5
:1016A00003EA02131943018470470A460021018CA2
:1016B0004FF67F7319404FF6FF7303EA0213194385
:1016C000018470470A460021018C4FF6FF531940F0
:1016D0004FF6FF7303EA02231943018470470A4659
:1016E0000021018C4FF2FF7319404FF6FF7303EA9C
:1016F00002231943018470470A460021018C4DF6EC
:10170000FF7319404FF6FF7303EA02331943018454
:10171000704730B5002301248C40A3B2048C9C4355
:101720000484048C02FA01F5ADB22C43048430BD6C
:1017300030B5002304248C40A3B2048C9C43048461
:10174000048C02FA01F5ADB22C43048430BD70B5AF
:101750000346002000241846183001258D40ACB205
:101760001D8CA5431D8409B1082909D100EB610036
:10177000056825F0700505600568154305600EE0F5
:101780000D1FC5F34E052844056825F4E0450560A6
:1017900005684FF6FF7606EA02263543056070BD00
:1017A00021B1028842F00202028004E002884FF672
:1017B000FD731A400280704721B1028842F0040292
:1017C000028004E002884FF6FB731A4002807047E3
:1017D00021B1828842F08002828004E082884FF644
:1017E0007F731A408280704702884FF6F7731A4061
:1017F000028002880A430280704782884FF68F7306
:101800001A40828082880A438280704702894FF69C
:10181000F8731A40028102890A43028170470289E3
:101820004FF67F731A40028102890A430281704792
:101830008184704781857047818670470187704732
:1018400081877047A0F84010704702884FF6FF4329
:101850001A40028002880A43028070470146888E3F
:1018600070470146088F70470146888F70470146D0
:10187000B1F8400070470146888C70470146088DDA
:10188000704702460020138A0B400BB1012000E094
:1018900000207047CA430282704730B502460020DC
:1018A00000230024158A05EA0103958905EA01044D
:1018B00013B10CB1012000E0002030BDCA43028208
:1018C0007047000010B50446FB48844209D101214D
:1018D0008803FFF79BF800214FF48040FFF796F84C
:1018E00032E0F648844209D101214804FFF79BF811
:1018F00000214FF40030FFF796F825E0F0488442CD
:1019000009D101218804FFF78EF800214FF48020CF
:10191000FFF789F818E0EB48844209D10121C80497
:10192000FFF781F800214FF40020FFF77CF80BE06F
:10193000E548844208D101210805FFF774F8002129
:101940004FF48010FFF76FF810BD2DE9F04786B017
:1019500005460E460024A24600BFA1460027B089D6
:1019600000B100BF2F462C8A4CF6FF700440F0886F
:1019700004432C82AC894EF6F3100440B0883189C0
:101980000843718908430443AC81AC8A4FF6FF4099
:101990000440B0890443AC8201A8FEF7B0FFC648FA
:1019A000874202D1DDF810A001E0DDF80CA0A88983
:1019B00000F4004040B10AEBCA0000EB0A103168A5
:1019C0004900B0FBF1F807E00AEBCA0000EB0A108F
:1019D00031688900B0FBF1F86420B8FBF0F0040135
:1019E0002009642101FB1089A88900F4004040B15E
:1019F000322000EBC900B0FBF1F000F00700044317
:101A000008E0322000EB09106421B0FBF1F000F097
:101A10000F0004432C8106B0BDE8F0874FF4165147
:101A2000016000218180C18001810C214181002160
:101A30008181704710B502460020108A4FF2FF03E3
:101A400018400B884C8823438C882343CC8823433D
:101A50001843108210BD0021018041808180C18027
:101A6000704721B1828942F40052828104E0828968
:101A70004DF6FF731A4082817047F0B5034600248B
:101A800000260025002040F66A17B94200D100BFA9
:101A90001846C1F3421401F01F06012707FA06F5A4
:101AA000012C01D10C3004E0022C01D1103000E0F7
:101AB00014301AB107682F43076002E00768AF438C
:101AC0000760F0BD1AB1838A0B43838202E0838AE8
:101AD0008B4383827047028A4FF6F0731A4002826A
:101AE000028A0A430282704782894FF2FF731A40CA
:101AF000828182890A438281704721B1828942F0C2
:101B00000202828104E082894FF6FD731A408281CD
:101B10007047028A4FF6DF731A400282028A0A4334
:101B20000282704721B1028A42F48042028204E0BC
:101B3000028A4BF6FF731A4002827047C1F3080213
:101B40008280704701468888C0F308007047818909
:101B500041F0010181817047028BD2B20283028B76
:101B600042EA012202837047028B02F47F42028321
:101B7000028B0A430283704721B1828A42F020021D
:101B8000828204E0828A4FF6DF731A4082827047B5
:101B900021B1828A42F01002828204E0828A4FF6EA
:101BA000EF731A408282704721B1828A42F00802A4
:101BB000828204E0828A4FF6F7731A40828270476D
:101BC00021B1828942F40042828103E08289C2F31A
:101BD0000E028281704721B1828A42F400628282C1
:101BE00004E0828A4FF2FF731A4082827047828A31
:101BF0004FF6FB731A408282828A0A4382827047C0
:101C000021B1828A42F00202828204E0828A4FF687
:101C1000FD731A408282704702460020B1F5007FB2
:101C200000D100BF13880B400BB1012000E0002061
:101C3000704701F40072B2F5007F00D100BFCA43C3
:101C40000280704770B50246002400230025002062
:101C500040F66A16B14200D100BFC1F3421501F04F
:101C60001F03012606FA03F3012D02D196893340A2
:101C700006E0022D02D1168A334001E0968A3340F5
:101C80000C12012606FA04F41688344013B10CB184
:101C9000012000E0002070BD10B50022002340F6B6
:101CA0006A14A14200D100BF0A1201249440A3B2D9
:101CB000DC43048010BD00000038014000440040B7
:101CC00000480040004C00400050004000204449C3
:101CD0000860091D0860091D0860091D0860414869
:101CE0003F4914310860704700213D498279002A3C
:101CF0003AD00A46126803689A430B461A600A1DD6
:101D0000126803689A430B1D1A60027911440A682D
:101D100003681A430A60324A0832126803689A4319
:101D20002F4B08331A601A1D126803689A432C4B14
:101D30000C331A604279102A0ED11A1F12680368F8
:101D40001A43274B08331A601A1D126803681A4396
:101D5000234B0C331A600DE02149427911440A6883
:101D600003681A430A6005E0027911440A680368AF
:101D70009A430A6070470021016001710C21417192
:101D80000021817170471649103109680143144AD6
:101D900010321160704701460020114A1432126857
:101DA0000A400AB1012000E0002070470C491431BC
:101DB00008607047014600200022094B1B6803EAB7
:101DC0000102074B14331B680B4013B10AB1012009
:101DD00000E000207047024914310860704700009D
:101DE00000040140FFFF0F0008B501210420FEF7A9
:101DF000F3FD0120ADF8000010208DF80300032052
:101E00008DF8020069460B48FEF72AFB01211020DD
:101E1000FEF7E2FD4FF40060ADF8000010208DF8F1
:101E2000030003208DF8020069460348FEF718FB03
:101E300008BD000000080140001001407FB50546C4
:101E40000C4601210220FEF7D4FDADF80850ADF894
:101E500004400020ADF80A00ADF8060001A92348AF
:101E6000FEF7F6FE012241212048FFF768FA1D2007
:101E70008DF8000003208DF8010002208DF802008B
:101E800001208DF803006846FEF721FA012117486A
:101E9000FFF73AFA7FBD10B5002401211348FFF780
:101EA000FCFC08B301211148FFF708FD104800F0C1
:101EB000BFF800BF04E000200D490855601C84B243
:101EC000FF2CF8DB00200B4908800B4800F057F985
:101ED000002404E0002008490855601C84B2FF2C4F
:101EE000F8DB00200549088010BD00000004004018
:101EF000770200201A00002078010020180000203E
:101F000000210A4A118000BF084909888142FBDB91
:101F1000704710B50346002405E04FF47A70FFF7D0
:101F2000EFFF601C84B29C42F7DB10BD2200002052
:101F300010B54FF4A060FEF7C5F910BD00BFDB4936
:101F4000098801F040010029F9D0C1B2D74A121D19
:101F500011807047014600207047024600BFD348F9
:101F6000008800F040000028F9D0D0B2CF4B1B1DF4
:101F700018800020704710B586B00446012144F255
:101F80000500FEF729FD4FF40070ADF814000320A2
:101F90008DF8160018208DF8170005A9C448FEF723
:101FA0005FFA4FF48060ADF8140004208DF817003C
:101FB00005A9BF48FEF754FA25208DF8000003203C
:101FC0008DF801008DF8020001208DF803006846AD
:101FD000FEF77DF901940020ADF80800ADF80A0085
:101FE000ADF80C00ADF810000C20ADF80E0001A902
:101FF000AE48FFF7AAFC012240F22551AB48FFF79B
:102000003CFD0121A948FFF72CFD06B010BD10B51D
:10201000044600BF4021A548FFF7FEFD0028F9D087
:102020002146A248FFF78AFD204603F005FF10BDB8
:1020300010B5044603E014F8010BFFF7E8FF207821
:102040000028F8D110BD10B540F225519748FFF790
:10205000F9FDB0B19548FFF775FDC4B29548008809
:10206000FF2802DD00209349088092490888411C1E
:10207000904A118090490C5440F225518B48FFF74B
:102080000BFE10BD10B586B0044601210520FEF7F9
:10209000A3FC01214804FEF7ACFC0420ADF81400B9
:1020A00003208DF8160018208DF8170005A9804828
:1020B000FEF7D6F90820ADF8140004208DF81700BB
:1020C00005A97B48FEF7CCF926208DF800000020FA
:1020D0008DF801008DF8020001208DF8030068469C
:1020E000FEF7F5F801940020ADF80800ADF80A00FD
:1020F000ADF80C00ADF810000C20ADF80E006F48E4
:10210000FFF7E0FB01A96D48FFF71FFC012240F239
:1021100025516A48FFF7B1FC01216848FFF7A1FC8F
:1021200006B010BD10B540F225516448FFF78AFD96
:10213000B0B16248FFF706FDC4B261480088FF28CD
:1021400002DD00205E4908805D490888411C5C4A28
:1021500011805C490C5440F225515848FFF79CFD12
:1021600010BD10B5044600BF40215448FFF754FD90
:102170000028F9D021465148FFF7E0FC10BD10B50A
:10218000044603E014F8010BFFF7EBFF207800286A
:10219000F8D110BD10B586B0044601210920FEF724
:1021A0001BFC01218804FEF724FC4FF48060ADF88D
:1021B000140003208DF8160018208DF8170005A9CB
:1021C0004148FEF74DF94FF40060ADF814000420CB
:1021D0008DF8170005A93C48FEF742F927208DF835
:1021E000000003208DF801008DF8020001208DF819
:1021F00003006846FEF76BF801218804FEF7F9FB3F
:1022000001940020ADF80800ADF80A00ADF80C000C
:10221000ADF810000C20ADF80E0001A92B48FFF717
:1022200094FB012240F225512848FFF726FC0121AA
:102230002648FFF716FC06B010BD10B540F2255138
:102240002248FFF7FFFCB0B12048FFF77BFCC4B287
:102250001F480088FF2802DD00201D4908801C4916
:102260000888411C1A4A11801A490C5440F2255121
:102270000E48FFF711FD10BD10B5044600BF402108
:102280001248FFF7C9FC0028F9D021460F48FFF794
:1022900055FC10BD10B5044603E014F8010BFFF720
:1022A000EBFF20780028F8D110BD00000038014075
:1022B0000008014018000020780100200044004080
:1022C0001A00002077020020000C01400048004066
:1022D0001C0000207603002000F027F94149B1F1ED
:1022E000807F01D301201DE021F07F40401E4FF090
:1022F000E022506150170F22002807DA13071D0E45
:10230000394B00F00F04241F1D5503E013071C0E6A
:10231000364B1C5400BF00204FF0E0229061072094
:102320001061002008B100BFFEE7FFF75DFD01204E
:102330002F490860FFF7FCFD4FF4E130FFF71BFE6B
:1023400000202C49C1F8AC014FF4E160FFF7D8FD43
:10235000002003F0D2FC4FF42F70FFF7D1FD0120D5
:1023600003F0CBFC03F086FC03F09CFC02F04AFE79
:102370004FF4E130FFF786FE4FF4E130FFF70AFF3C
:1023800000F058F900F062F900F064F901201A49F0
:10239000086025E000F066F990B10120144908605A
:1023A0001648008800F4004068B114480088C0F363
:1023B0000D01134800F060F900201049088002E088
:1023C00000200B4908600F48006800F0010008B9C0
:1023D00000F038F900F058F910B100200449086005
:1023E000D8E700004019010018ED00E000E400E02B
:1023F0008001214200002242AC01224274000020F0
:10240000440A002024000020704700BFFEE700BF00
:10241000FEE700BFFEE700BFFEE77047704770476A
:1024200007480088401C0649088006480088401C70
:102430000449088004480068401C0349086070474C
:102440002000002022000020240000200CB50020E5
:10245000019000906C48006840F480306A49086040
:1024600000BF6948006800F4003000900198401CEB
:102470000190009818B90198B0F5A06FF1D16248A9
:10248000006800F4003010B10120009001E000204D
:1024900000900098012843D15C48006840F010008B
:1024A0005A4908600846006820F0030008600846A2
:1024B000006840F002000860534840685249486094
:1024C0000846406848600846406840F480604860BC
:1024D0000846406820F47C1048600846406840F494
:1024E000881048600846006840F08070086000BFAF
:1024F0004548006800F000700028F9D04248406864
:1025000020F00300404948600846406840F002005F
:10251000486000BF3C48406800F00C000828F9D132
:102520000CBD10B5FFF792FF10BD10B5364800681E
:1025300040F00100344908600846406834490840CA
:102540003149486008460068324908402E49086011
:102550000846006820F4802008600846406820F49F
:10256000FE0048604FF41F008860FFF7DAFF4FF06D
:1025700000602949086010BD10B50021002000222C
:10258000214B5B6803F00C0121B1042906D0082916
:1025900028D107E0214B224C236027E0214B204C1F
:1025A000236023E0184B5B6803F47010164B5B68E4
:1025B00003F48032022303EB904022B91A4B4343C9
:1025C000174C23600DE0104B5B6803F4003323B11C
:1025D000164B4343124C236003E0124B4343104C11
:1025E000236003E00D4B0E4C236000BF00BF064B81
:1025F0005B68C3F303130E4CE15C094B1B68CB40D3
:10260000074C236010BD0000001002400020024073
:102610000000FFF8FFFFF6FE08ED00E000127A0070
:1026200028000020001BB70000093D00808D5B00E2
:102630002C00002010B501F069FE10BD10B501F0AE
:102640007BFE10BD10B501F08BFE10BD10B501F082
:102650002FFE10BD10B501F041FE10BD10B501F008
:1026600016FE10BD10B501F06BFE10BD10B504468E
:10267000204601F0CFFE10BD70B504460D46294638
:10268000204601F0DEFE70BD10B501F0E8FE10BD81
:1026900012480068704730B589B00546104CA07AE2
:1026A000617A227AE379CDE90532CDE90710A07984
:1026B00061792279E378CDE90132CDE90310A07880
:1026C00000906378227807A1284603F073FF09B0D1
:1026D00030BD032801D10F4A11607047240000204B
:1026E0003C000020253032582530325825303258F1
:1026F000253032582530325825303258253032585E
:10270000253032582530325825303258253032584D
:1027100000000000AC012242704710B500231F4C9E
:1027200023801F4C237010BD7047704701461B4823
:1027300000881B4A1278801A01D1012070470020BE
:10274000FCE710B50246164B1878431C144C237056
:10275000144B195C1148008823461B78984204D119
:102760000020234618700D4B1880084610BD70B528
:1027700005460C462046FFF77FFD70BD70B5054647
:102780000C462046FFF743FC70BD70470021034A0A
:102790001180034A11707047704770471C00002079
:1027A000470000207603002010B504460020207169
:1027B000207320720021082001F01FFD01F078FD38
:1027C00010BD70B504460D462560002084F87800E1
:1027D0000021042001F011FD00BFFBA104F18B00DA
:1027E00004F070F800BF2046FFF7DEFF70BD10B5A3
:1027F00004462068FFF799FF10BD70B504460D46EA
:1028000029462068FFF7B3FF70BD2DE9F041074668
:102810000D461646002405E0295D3846FFF7EDFF1A
:10282000601CC4B2B442F7DBBDE8F081417170476F
:102830002DE9F0410446677C257DA22F42D008DCBB
:10284000802F0DD0822F7BD08A2F7AD0A02F12D14B
:1028500012E0A32F5CD0C22F74D0CA2FF7D18DE025
:1028600025B912212046FFF7E1FF04E000BF204612
:10287000FFF79AFF00BF94E0F5B9617DA07D41EAC2
:10288000002194F84D2004F14E0020F8121014F8A5
:102890004D0F401C207014F84D09032804DA132151
:1028A0002046FFF7C3FF0CE014212046FFF7BEFFD0
:1028B000002084F84D0004E000BF2046FFF774FFBD
:1028C00000BF6EE0F5B9617DA07D41EA002194F87A
:1028D0004D2004F1540020F8121014F84D0F401C44
:1028E000207014F84D09062804DA14212046FFF759
:1028F0009DFF0CE0002084F84D0015212046FFF7D5
:1029000095FF04E000BF2046FFF74EFF00BF48E000
:102910000DBB617DA07D41EA002194F84D2004F1BA
:10292000600020F8121014F84D0F401C207014F8AD
:102930004D09072807DA15212046FFF777FF0FE03A
:1029400025E029E00DE0002084F84D001821204604
:10295000FFF76CFF04E000BF2046FFF725FF00BF34
:102960001FE0217D607D41EA0026A17DE07D41EAF6
:1029700000261A212046FFF759FF12E0217D607DD5
:1029800041EA00261B212046FFF750FF09E0217D88
:10299000607D41EA002604E0217D607D41EA002659
:1029A00000BF00BFBDE8F08170B50446667C257DA0
:1029B000802E0ED13DB9002084F84D00162120460E
:1029C000FFF734FF04E000BF2046FFF7EDFE00BF35
:1029D00000BF00BF70BD2DE9F0410446667C257D37
:1029E000842E48D006DC4C2E0BD0542E52D0812E93
:1029F00065D121E0882E2BD0932E14D0FF2E5ED1EE
:102A00005CE055B9E07D012800D058E0617DA07DF3
:102A100041EA0020A4F86E0004E000BF2046FFF762
:102A2000C3FE00BF4BE0217D607D41EA00271821F5
:102A30002046FFF7FBFE42E025B911212046FFF7B3
:102A4000F5FE04E000BF2046FFF7AEFE00BF36E013
:102A5000822D0CD003DC3DB1812D0AD106E0862DFC
:102A600003D0A42D05D103E003E002E001E000E083
:102A700000BF00BF23E03DB9002084F84D001321C2
:102A80002046FFF7D3FE04E000BF2046FFF78CFE90
:102A900000BF14E065B9D4F81510C4F87F10B4F87D
:102AA0001900A4F8830017212046FFF7BFFE04E0B9
:102AB00000BF2046FFF778FE00BF00E000BF00BF68
:102AC000BDE8F08170B504460D4629462068FFF741
:102AD00055FE70BD2DE9F04107460D46164600240F
:102AE00005E0295D3846FFF7EDFF601CC4B2B44233
:102AF000F7DBBDE8F0812DE9F0410446677C257DD8
:102B0000482F2ED004DC432F13D0442F43D11CE098
:102B1000812F02D0F12F3ED13CE025B90B21204678
:102B2000FFF784FE04E000BF2046FFF73DFE00BF34
:102B300031E025B90021084601F05FFB04E000BF49
:102B40002046FFF731FE00BF25E025B90021012016
:102B500001F053FB04E000BF2046FFF725FE00BF55
:102B600019E0A17CE07C41EA0028B8F1000F10D008
:102B7000217D607D41EA0026F2B204F11601204673
:102B8000FFF743FEF2B204F116012046FFF7A2FF61
:102B900000BF00BF00BF00BFBDE8F0812DE9F047D6
:102BA000044694F81190257DB9F18C0F71D01ADC90
:102BB000B9F16E0F5FD00FDCB9F1470F20D0B9F13A
:102BC000550F4AD14AE00000597568745F54433389
:102BD0003536363100000000B9F17D0F5AD0B9F119
:102BE000810FEED170E0B9F1930F73D0B9F1BD0F41
:102BF00071D0B9F1F10F6FD0B9F1FF0FE1D1D4E08D
:102C0000E07E08280DD2DFE800F004050607080979
:102C10000A0B06E005E004E003E002E001E000E06A
:102C200000BF00BFE07E03280CD1002008E000F1C7
:102C30000F0104F10D02515CF74A1154411CC8B256
:102C40001028F4DB872D08D1002004E00021F24A8F
:102C50001154411CC8B21028F8DBA7E0626904F1E6
:102C60008500C4F88520218BA4F889100C2120460A
:102C7000FFF7DCFD9AE0A67E1F2E00D91F2600215B
:102C800004F1AB008155324604F11B0103F05DFEF7
:102C90008CE028E094F81380277D312F06D0322F66
:102CA00009D0332F08D0362F0CD10AE00D21204651
:102CB000FFF7BCFD06E005E00E212046FFF7B6FD5C
:102CC00000E000BF00BF71E03DB909212046FFF7D9
:102CD000ADFD07E00EE01BE03BE000BF2046FFF744
:102CE00063FD00BF62E025B100BF2046FFF75CFD39
:102CF00000BF5BE035B1012D05D0032D04D0062DBA
:102D000004D102E002E001E000E000BF00BF4DE0BE
:102D100094F81B80617EA07E41EA0027A7F22B4039
:102D200098B1012812D0A0F2F97080B93DB9B8F17C
:102D3000000F04D10A212046FFF778FD04E000BF10
:102D40002046FFF731FD00BF01E000E000BF00BFFB
:102D50002CE00C2D1FD009DC0B2D23D2DFE805F071
:102D6000151622171819222222221A00422D16D0D7
:102D700006DC0D2D10D0402D0FD0412D12D10DE0CD
:102D8000432D0DD0442D0DD10BE00CE00BE00AE0FB
:102D900009E008E007E006E005E004E003E002E007
:102DA00001E000E000BF00BF00E000BF00BFBDE8E1
:102DB000F0872DE9F84F044694F80E90B9F10E0F04
:102DC00006D0B9F1100F2FD0B9F1FF0F2BD140E091
:102DD000617CA07C41EA0026E57C36B1A6F6034082
:102DE00040B1B0F5826F1DD110E001212046FFF700
:102DF0001DFD17E025B902212046FFF717FD04E06D
:102E000000BF2046FFF7D0FC00BF0BE025B907212B
:102E10002046FFF70BFD04E000BF2046FFF7C4FC8F
:102E200000BF00BF00BF7CE0207C202804D0212808
:102E300003D0222803D101E001E000E000BF00BF81
:102E4000012084F87800FFF723FC0A30C4F8CC0096
:102E500067E0277C94F81280082F61D1B8F1990FB0
:102E600011D1E07C50B908212046FFF7DFFC01209A
:102E700000906946032001F0C0F951E000BF2046F0
:102E8000FFF792FC4CE094F817A0BAF10D0F09D0AF
:102E9000BAF15B0F13D0BAF1830F1DD0BAF1880FCE
:102EA0003CD126E0207E20B903212046FFF7BEFC5E
:102EB00004E000BF2046FFF777FC00BF2EE0207E35
:102EC00020B904212046FFF7B1FC04E000BF2046F2
:102ED000FFF76AFC00BF21E0207E20B905212046D3
:102EE000FFF7A4FC04E000BF2046FFF75DFC00BF35
:102EF00014E0207E60B9D4F81B10C4F87910B4F83F
:102F00001F00A4F87D0006212046FFF78FFC04E097
:102F100000BF2046FFF748FC00BF00BF00BF00BF56
:102F200000BF00BFBDE8F88F70B504460D462068AD
:102F3000407810B1002021684870207A30B1012813
:102F400009D002282ED0032870D13CE065730120FF
:102F5000207320726AE0217B04F10D004554207B30
:102F6000401C2073207B03281BD1607B042805D1E3
:102F700002202072E07BC01C608112E0617BA07B9C
:102F800041EA0021E07B41EA0046B6F5803F04D3E8
:102F900000BF2046FFF708FC00BF668103202072B7
:102FA00000BF43E0217B04F10D004554207B401C11
:102FB0002073207B6189884204D12046FFF7F9FE07
:102FC0000020207232E0217B04F10D004554207B6B
:102FD000401C2073207B6189884226D1207CD32825
:102FE0001CD004DCD1280FD0D2281BD110E0E1285E
:102FF00002D0E52816D103E02046FFF7CFFD11E00F
:103000002046FFF778FD0DE02046FFF7E4FC09E0DD
:103010002046FFF7C9FC05E0750400202046FFF7B5
:1030200007FC00BF00BF0020207200BF00BF70BDC2
:1030300001B58AB009E00A9800680690FFF781FBA5
:10304000014607900A98FFF76FFF0A9800680790FB
:10305000FFF76CFB0028EED00A984079002801F0B9
:1030600003800A9840791C2880F0F787DFE810F089
:10307000F5071C00230029002F0035003B005500F8
:103080005E00BF00C500CB00D1004F017401F50701
:103090009101EA01F001F6018402B40339063F060A
:1030A00058064E074F07A2070422FE490A98FFF769
:1030B000ACFB00F0D2BF0D22FB490A98FFF7A5FB3D
:1030C000F7E70F22F9490A98FFF79FFBF1E70D2276
:1030D000F7490A98FFF799FBEBE71422F5490A989C
:1030E000FFF793FBE5E70422F3490A98FFF78DFB0E
:1030F000062007900DE00798411E0A987930405C41
:10310000014606900A98FFF778FB0798401EC0B268
:10311000079007980028EEDCCBE76420FEF7F0FE6E
:103120000722E6490A98FFF770FBC2E70A988B303E
:1031300003F0ECFB0A3080B2099000BF0998C0B2DE
:10314000014607900A98FFF758FB0998000A0146C4
:1031500007900A98FFF751FB00210A98FFF74DFBF3
:1031600000BF0222D6490A98FFF74FFB0A988B301E
:1031700003F0CCFBC01C80B2099000BF0998C0B21C
:10318000014607900A98FFF738FB0998000A0146A4
:1031900007900A98FFF731FB00BF04210A98FFF758
:1031A0002CFB02210A98FFF728FB0A988B3003F0CA
:1031B000ADFBC0B2014607900A98FFF71EFB002046
:1031C00007900CE00A988B300799405C0146069006
:1031D0000A98FFF712FB0798401CC0B207900A98A4
:1031E0008B3003F093FB07998842EBD861E70D22FF
:1031F000B4490A98FFF709FB5BE70722B2490A982E
:10320000FFF703FB55E70822B0490A98FFF7FDFADC
:103210004FE70020089007900AE0AD490798085C46
:1032200010B10120089006E00798401CC0B207903A
:1032300007981028F1DB089808B1102000E0002062
:103240000F30099000BF0998C0B2014607900A9854
:10325000FFF7D3FA0998000A014607900A98FFF78A
:10326000CCFA00210A98FFF7C8FA00BF0222994958
:103270000A98FFF7CAFA089808B1102000E0002069
:103280000830099000BF0998C0B2014607900A981B
:10329000FFF7B3FA0998000A014607900A98FFF76A
:1032A000ACFA00BF00210A98FFF7A7FA00200790A8
:1032B0000CE00A9885300799405C014606900A9810
:1032C000FFF79BFA0798401CC0B2079007980628A2
:1032D000EFDB0898B0B101210A98FFF78EFA0020C1
:1032E00007900BE07A490798085C014606900A9817
:1032F000FFF783FA0798401CC0B207900798102880
:10330000F0DB03E000210A98FFF777FAD1E60A2202
:1033100071490A98FFF779FA002007900CE00A98A3
:1033200085300799405C014606900A98FFF765FAD8
:103330000798401CC0B2079007980628EFDB0321CE
:103340000A98FFF75AFA00210A98FFF756FA032164
:103350000A98FFF752FAACE60A2260490A98FFF78A
:1033600054FA002007900CE00A9885300799405CD9
:10337000014606900A98FFF740FA0798401CC0B231
:10338000079007980628EFDB00210A98FFF735FA27
:103390008FE60A988B3003F0B9FA083080B20990B2
:1033A00000BF0998C0B2014607900A98FFF725FAB6
:1033B0000998000A014607900A98FFF71EFA0021B3
:1033C0000A98FFF71AFA00BF022245490A98FFF748
:1033D0001CFA0A988B3003F099FA401C80B20990CD
:1033E00000BF0998C0B2014607900A98FFF705FA96
:1033F0000998000A014607900A98FFF7FEF900BFF6
:103400000A988B3003F082FAC0B2014607900A98FE
:10341000FFF7F3F9002007900CE00A988B3007992A
:10342000405C014606900A98FFF7E7F90798401CB0
:10343000C0B207900A988B3003F068FA0799884267
:10344000EBD836E6072227490A98FFF7DEF930E67F
:10345000072225490A98FFF7D8F92AE60A9890F832
:103460004D00022801D0022000E010200830099011
:1034700000BF0998C0B2014607900A98FFF7BDF94E
:103480000998000A014607900A98FFF7B6F900214B
:103490000A98FFF7B2F900BFD3210A98FFF7ADF9F8
:1034A000202123E0D07F0008D47F0008E17F0008BE
:1034B000F07F0008FD7F00081180000815800008DB
:1034C0001C8000081E8000082B8000083280000845
:1034D000750400203A8000083C80000846800008FF
:1034E0005080000852800008598000080A98FFF7B1
:1034F00084F900BF0998C01FC0B2014607900A981E
:10350000FFF77BF90998C01FC0F307200146079019
:103510000A98FFF772F900BF09980838C0B201464F
:1035200007900A98FFF769F90A9890F84D0048B992
:1035300000BF00210A98FFF760F918210A98FFF7E9
:103540005CF900BF0A9890F84D00012809D100BF2E
:103550000A210A98FFF751F918210A98FFF74DF947
:1035600000BF0A9890F84D00022804D11022FE49AD
:103570000A98FFF74AF99CE50A9890F84D0005284B
:1035800001D0022000E010200B30099000BF099804
:10359000C0B2014607900A98FFF72FF90998000A70
:1035A000014607900A98FFF728F900210A98FFF7CB
:1035B00024F900BFD3210A98FFF71FF922210A98A6
:1035C000FFF71BF900BF0998C01FC0B20146079062
:1035D0000A98FFF712F90998C01FC0F307200146A7
:1035E00007900A98FFF709F900BF0A9890F84D0074
:1035F00020BB00BF0A9890F84E00014607900A9839
:10360000FFF7FBF80A98B0F84E00000A0146079051
:103610000A98FFF7F2F800BF02210A98FFF7EDF8C9
:1036200002210A98FFF7E9F800BF00210A98FFF786
:10363000E4F82A210A98FFF7E0F800BF0A9890F80A
:103640004D00012824D100BF0A9890F84E00014691
:1036500007900A98FFF7D1F80A98B0F84E00000AD0
:10366000014607900A98FFF7C8F800BF02210A98A0
:10367000FFF7C3F802210A98FFF7BFF800BF012146
:103680000A98FFF7BAF82A210A98FFF7B6F800BFA0
:103690000A9890F84D00022824D100BF0A9890F8AB
:1036A0005000014607900A98FFF7A7F80A98B0F86B
:1036B0005000000A014607900A98FFF79EF800BFE5
:1036C00002210A98FFF799F802210A98FFF795F866
:1036D00000BF29210A98FFF790F82A210A98FFF7DE
:1036E0008CF800BF0A9890F84D00032824D100BF41
:1036F0000A9890F85000014607900A98FFF77DF865
:103700000A98B0F85000000A014607900A98FFF79F
:1037100074F800BF02210A98FFF76FF802210A9897
:10372000FFF76BF800BF24210A98FFF766F82A21FB
:103730000A98FFF762F800BF0A9890F84D00042835
:1037400024D100BF0A9890F85000014607900A98CB
:10375000FFF753F80A98B0F85000000A01460790A6
:103760000A98FFF74AF800BF02210A98FFF745F8C8
:1037700002210A98FFF741F800BF23210A98FFF7BA
:103780003CF82A210A98FFF738F800BF0A9890F809
:103790004D0005281FD100BF0A9890F8520001463D
:1037A00007900A98FFF729F80A98B0F85200000A23
:1037B000014607900A98FFF720F800BF28210A98D1
:1037C000FFF71BF810210A98FFF717F81022674936
:1037D0000A98FFF71AF86CE40E2009900A9890F8FE
:1037E0004D0040B90A988B3003F090F8801C09997D
:1037F000084480B209900A9890F84D00012803D13E
:103800000998001D80B209900A9890F84D0002288E
:1038100003D10998093080B209900A9890F84D00B8
:10382000032803D109980B3080B209900A9890F8C8
:103830004D00042803D109980A3080B209900A98F3
:1038400090F84D00052803D109984C3080B20990BA
:103850000A9890F84D00062803D10998001D80B2FF
:10386000099000BF0998C0B2014607900A98FEF778
:10387000C4FF0998000A014607900A98FEF7BDFFA9
:1038800000210A98FEF7B9FF00BFD3210A98FEF77E
:10389000B4FF23210A98FEF7B0FF00BF0998C01FAC
:1038A000C0B2014607900A98FEF7A7FF0998C01F0B
:1038B000C0F30720014607900A98FEF79EFF00BF5D
:1038C0000A9890F84D00D0BB00BF0A9890F85400B9
:1038D000014607900A98FEF790FF0A98B0F8540046
:1038E000000A014607900A98FEF787FF00BF0221F1
:1038F0000A98FEF782FF00BF00210A98FEF77DFFBD
:103900002A210A98FEF779FF00BF00BF0A988B3082
:1039100002F0FCFFC0B2014607900A98FEF76DFF67
:103920000A988B3002F0F2FFC0F30720014607909F
:103930000A98FEF762FF00BF002007900DE022E02A
:103940000A988B300799405C014606900A98FEF76A
:1039500054FF0798401CC0B207900A988B3002F0C1
:10396000D5FF0799884203E066800008768000084A
:10397000E6D800BF00210A98FEF73FFF00210A9811
:10398000FEF73BFF00BF0A9890F84D0001283ED19A
:1039900000BF0A9890F85600014607900A98FEF773
:1039A0002CFF0A98B0F85600000A014607900A98C2
:1039B000FEF723FF00BF02210A98FEF71EFF00BF9B
:1039C00001210A98FEF719FF2A210A98FEF715FF30
:1039D00000BF00BF02210A98FEF70FFF00210A98DE
:1039E000FEF70BFF00BF00BF42210A98FEF705FF5C
:1039F00014210A98FEF701FF00BF00BF00210A98BA
:103A0000FEF7FBFE00210A98FEF7F7FE00BF0A98BA
:103A100090F84D00022839D100BF0A9890F858005C
:103A2000014607900A98FEF7E8FE0A98B0F8580099
:103A3000000A014607900A98FEF7DFFE00BF022148
:103A40000A98FEF7DAFE00BF29210A98FEF7D5FE94
:103A50002A210A98FEF7D1FE00BF00BF07210A986D
:103A6000FEF7CBFE00210A98FEF7C7FE00BF072233
:103A7000FE490A98FEF7C9FE00BF00210A98FEF72A
:103A8000BCFE00210A98FEF7B8FE00BF0A9890F825
:103A90004D0003284DD100BF0A9890F85A00014606
:103AA00004900A98FEF7A9FE0A98B0F85A00000A96
:103AB000014604900A98FEF7A0FE00BF02210A9872
:103AC000FEF79BFE00BF24210A98FEF796FE2A21EE
:103AD0000A98FEF792FE00BF00BF09210A98FEF780
:103AE0008CFE00210A98FEF788FE00BF4FF4BC62EE
:103AF000DFA105A802F05EFD002004900BE005A9FF
:103B00000498085C014603900A98FEF776FE049834
:103B1000401CC0B2049004980928F0DB00BF0021CB
:103B20000A98FEF76AFE00210A98FEF766FE00BFBB
:103B300000BF0A9890F84D0004284AD100BF0A98A7
:103B400090F85C00014601900A98FEF756FE0A982C
:103B5000B0F85C00000A014601900A98FEF74DFE9D
:103B600000BF02210A98FEF748FE00BF23210A98F1
:103B7000FEF743FE2A210A98FEF73FFE00BF00BF72
:103B800008210A98FEF739FE00210A98FEF735FE53
:103B900000BF02A8FEF77FFD002001900BE002A904
:103BA0000198085C014600900A98FEF726FE0198ED
:103BB000401CC0B2019001980828F0DB00BF002132
:103BC0000A98FEF71AFE00210A98FEF716FE00BFBB
:103BD00000BF0A9890F84D0005283DD100BF0A9813
:103BE00090F85E00014607900A98FEF706FE0A98D4
:103BF000B0F85E00000A014607900A98FEF7FDFD46
:103C000000BF10210A98FEF7F8FD10229A490A9881
:103C1000FEF7FBFD00BF3C210A98FEF7EEFD0021F8
:103C20000A98FEF7EAFD00BF0020079007E0002198
:103C30000A98FEF7E2FD0798401CC0B2079007986B
:103C40003C28F4DB00BF00210A98FEF7D6FD0021D6
:103C50000A98FEF7D2FD00BF0A9890F84D0006289A
:103C60003ED100BF0A9890F85E00014607900A987E
:103C7000FEF7C3FD0A98B0F85E00000A01460790FF
:103C80000A98FEF7BAFD00BF02210A98FEF7B5FDBB
:103C900000BF02210A98FEF7B0FD29210A98FEF71D
:103CA000ACFD00BF00BF02210A98FEF7A6FD00216F
:103CB0000A98FEF7A2FD00BF00BF00210A98FEF798
:103CC0009CFD00210A98FEF798FD00BF00BF03216C
:103CD0000A98FEF792FD00210A98FEF78EFD00BFBC
:103CE000BBE1072265490A98FEF78FFDB5E107227F
:103CF00063490A98FEF789FD002007900CE00A98B6
:103D00007F300799405C014606900A98FEF775FDE2
:103D10000798401CC0B2079007980628EFDB9CE18B
:103D20005620099000BF0998C0B2014607900A9832
:103D3000FEF763FD0998000A014607900A98FEF70E
:103D40005CFD00210A98FEF758FD00BFD1210A98BA
:103D5000FEF753FD08210A98FEF74FFD4F2009900A
:103D600000BF0998C0B2014607900A98FEF745FDCA
:103D70000998000A014607900A98FEF73EFD00BF29
:103D800000BF40210A98FEF738FD00210A98FEF78F
:103D900034FD00BF00BF40210A98FEF72EFD002130
:103DA0000A98FEF72AFD00BF00210A98FEF725FDBC
:103DB00001210A98FEF721FD00210A98FEF71DFD5A
:103DC000062230490A98FEF720FD07210A98FEF7DF
:103DD00014FD00210A98FEF710FD1F210A98FEF736
:103DE0000CFD02210A98FEF708FD01210A98FEF752
:103DF00004FD01210A98FEF700FD11210A98FEF743
:103E0000FCFC07210A98FEF7F8FC10221E490A98CC
:103E1000FEF7FBFC05210A98FEF7EFFC03210A9848
:103E2000FEF7EBFC00BF00210A98FEF7E6FC182124
:103E30000A98FEF7E2FC00BF00BF0A210A98FEF7CD
:103E4000DCFC18210A98FEF7D8FC00BF00210A9874
:103E5000FEF7D3FC00210A98FEF7CFFC00210A9858
:103E6000FEF7CBFC00210A9810E0000086800008D5
:103E700064726F705F256400768000088D80000892
:103E8000948000086080000866800008FEF7B5FC9A
:103E90001F210A98FEF7B1FC0A988B3002F036FD1C
:103EA000401CC0B2014607900A98FEF7A6FC092103
:103EB0000A98FEF7A2FC002007900CE00A988B30CD
:103EC0000799405C014606900A98FEF796FC079811
:103ED000401CC0B207900A988B3002F017FD07997A
:103EE0008842EBD80A988B3002F010FD801CC0B2DB
:103EF000079007E000210A98FEF77FFC0798401C16
:103F0000C0B2079007981F28F4DBA6E0A5E00C20BC
:103F1000099000BF0998C0B2014607900A98FEF7C1
:103F20006CFC0998000A014607900A98FEF765FCA8
:103F300000210A98FEF761FC00BFD3210A98FEF722
:103F40005CFC02210A98FEF758FC00BF0998C01FCC
:103F5000C0B2014607900A98FEF74FFC0998C01FAF
:103F6000C0F30720014607900A98FEF746FC00BF01
:103F700000BF0A9890F86E00014607900A98FEF775
:103F80003CFC0A98B0F86E00000A014607900A98B7
:103F9000FEF733FC00BF00210A98FEF72EFC00BF9D
:103FA00000210A98FEF729FC00210A98FEF725FC5B
:103FB00000BF52E00C20099000BF0998C0B2014632
:103FC00007900A98FEF719FC0998000A0146079025
:103FD0000A98FEF712FC00210A98FEF70EFC00BFBB
:103FE000D3210A98FEF709FC0A210A98FEF705FC7E
:103FF00000BF0998C01FC0B2014607900A98FEF79B
:10400000FCFB0998C01FC0F30720014607900A98DF
:10401000FEF7F3FB00BF00BF0A9890F86E00014660
:1040200007900A98FEF7E9FB0A98B0F86E00000ABC
:10403000014607900A98FEF7E0FB00BF00210A98AE
:10404000FEF7DBFB00BF00210A98FEF7D6FB00213C
:104050000A98FEF7D2FB00BF00BF00BF0A98417963
:10406000817100210A9841710A9890F8780068B12E
:10407000FEF70EFB0A99D1F8CC10884206D9002130
:104080000A9880F878100A98817941710BB000BDC8
:1040900010B50446FEF7FCFA00F57A70C4F8CC00BF
:1040A00010BD2DE9F04107460D46284602F02EFCD2
:1040B00084B200BF04F10900C1B23846FEF79DFB8F
:1040C00004F10900C0F307213846FEF796FB04F11E
:1040D0000900010C3846FEF790FB00BFE521384689
:1040E000FEF78BFB08213846FEF787FB00BFA01CBC
:1040F000C1B23846FEF781FBA01CC0F30721384649
:10410000FEF77BFB00BF00BFE1B23846FEF775FB50
:10411000210A3846FEF771FB00BF002605E0A95DC5
:104120003846FEF76AFB701C86B2A642F7DBBDE894
:10413000F0812DE9F04107460E46144600BF04F118
:104140000900C1B23846FEF758FB04F10900C0F37C
:1041500007213846FEF751FB04F10900010C3846EF
:10416000FEF74BFB00BFE5213846FEF746FB082172
:104170003846FEF742FB00BFA01CC1B23846FEF72E
:104180003CFBA01CC0F307213846FEF736FB00BFFE
:1041900000BFE1B23846FEF730FB210A3846FEF791
:1041A0002CFB00BF002505E0715D3846FEF725FBBE
:1041B000681C85B2A542F7DBBDE8F0817047704707
:1041C0007047704710B5B048007810B9AF48FFF796
:1041D000F6FFAD480078012802D1AD48FEF707FB95
:1041E00010BD10B5AB49A948FFF7E8FF10BD10B5E9
:1041F000A849A748FEF7E5FA10BD70B505460E467A
:10420000092D42D2DFE805F0191D410905134125AA
:1042100021000120A049087037E00A20FDF770FE58
:1042200002209D49087000209C4908702DE0002064
:10423000994908709A49087027E001209849087048
:1042400023E00020964908701FE000209449087080
:104250001BE092480078B8B18B48047800F017F85A
:10426000FF20894908704FF4FA70FDF749FE24B920
:10427000012085490870FFF7BAFF012C04D1002006
:1042800081490870FFF7ADFF00BF00BF70BD10B5DA
:1042900000210220FEF71DFA00210320FEF719FA83
:1042A00000210520FFF7A9FF7A48FEF73DFA10BD6F
:1042B00010B500210220FEF70CFA00210320FEF7C2
:1042C00008FA7448FEF730FAFEF7E2F900F57A6072
:1042D0007449086000207449087010BD10B56A4820
:1042E000007810B1012806D102E0FFF77AFF0BE059
:1042F000FFF77DFF08E0012068490870002062494F
:104300000870FFF76EFF00BF00BF10BD10B50120A1
:104310005D490870402280215E48FEF7FEF90021C9
:104320000420FEF7D6F900210220FEF7D2F9002181
:104330000320FEF7CEF910BD10B5FFF7A8FF10BDA2
:1043400057480078704710B504E05248FEF7F9F975
:10435000044600BF4F48FEF7E9F90028F5D010BD2C
:1043600010B54D48007800B910BD4E4800680028CF
:104370003BD0FEF78DF94B490968884200D2F3E73C
:104380004948007820B1012810D002282BD120E024
:1043900001210220FEF79DF9FEF77AF900F5FA7087
:1043A000404908600120404908701CE04FF4E132A8
:1043B00000213848FEF7B0F902213648FEF7E5F94A
:1043C000FEF766F90A30374908600220364908705E
:1043D00009E001210320FEF77CF900203249087032
:1043E0003049086000BF00BFBEE72748007810B919
:1043F0002648FFF7E5FE24480078012802D124482A
:10440000FEF716FE20480078FF2801D1FFF79BFF3A
:1044100000BFA9E710B504462148007800B910BDD7
:104420001948007818B921461848FFF7CAFE1648FF
:104430000078012803D121461548FFF732FE00BF5E
:10444000EDE770B504460D461548007800B970BD1B
:104450002A4621460E48FFF76CFE00BFF7E70E48DC
:104460000078022801D1012070470020FCE70648AF
:104470000078704710B50748FEF78EF904460B4ADE
:104480000B4903F035FD10BD490000204A00002013
:104490008C0400204B000020560000204800002023
:1044A00055000020500000205400002000000008AB
:1044B0009B27000810B504462CB90120F64909686D
:1044C0000882002010BDF549096808688047F24855
:1044D00000680A30F6E710B5EF480068C078F04988
:1044E0004978884213DCEC480068807878B9EA485B
:1044F0000068808858B9E8480068C078E6490968CB
:104500008872E649096848688047002010BD02208B
:10451000FCE710B504462CB90120DF490968088280
:10452000002010BDDD49096888688047DA480068C6
:104530000C30F6E710B5D84B1B68D978D64B1B6802
:104540005879D84B1B689A6990470446D24800684E
:10455000807AE8B13CB9D0480068007918B9CE48F3
:104560000068807808B1022010BD8CB9CB49096879
:10457000C8688047C84800684079C7490968C87258
:10458000C5480068C078C449096808730020EBE793
:104590000220E9E710B504462CB90220BE4909689B
:1045A0000882002010BD0020BF490880BA4800687A
:1045B000007800F07F0018BBB7490968487A00F01E
:1045C000200131B1B849097841F00201B64A1170B1
:1045D00005E0B549097801F0FD01B34A117000F01A
:1045E000400131B1B049097841F00101AE4A117082
:1045F00005E0AD49097801F0FE01AB4A11703AE0DF
:10460000A5480068007800F07F00012801D1A64885
:10461000C8E7A1480068007800F07F00022828D190
:104620009D4A1268517901F00F0001F080027AB1C1
:104630009E4B03EB8002D2F8002C02F03002102ACD
:1046400016D1994A127842F00102974B1A700FE086
:10465000964B03EB8002D2F8002C02F44052B2F5E4
:10466000805F05D1904A127842F001028E4B1A7099
:1046700001E0002096E789490968086980478A486F
:1046800090E72DE9F04784480068007800F07F0843
:10469000B8F1000F0AD180480068407A00F0DF00CE
:1046A0007D49096848720020BDE8F087B8F1020F23
:1046B0007ED179480068408818B977480068007949
:1046C00008B10220F0E7DFF8D89173480068477915
:1046D00027F080052C4670480068407900F0800083
:1046E00038B1724901EB8400D0F8000C00F03006BC
:1046F00006E06E4901EB8400D0F8000C00F440564F
:1047000099F80000A84204D91EB163480068807A75
:1047100008B90220C8E707F0800080B1634901EBC7
:104720008400D0F8000C00F0300010284BD1E0B22B
:1047300001F01DF8E0B2302100F09FFE43E05B493C
:1047400001EB8400D0F8000C00F44050B0F5805F1D
:1047500039D1E4B9564A92F82C10E0B201F091F840
:10476000524A02EB8401D1F8001C4BF68F7201EA29
:10477000020080F4805080F4005040F4004141F089
:1047800080014A4B03EB8402C2F8001C1BE0E0B23C
:1047900000F0D5FF454A02EB8401D1F8001C4BF62E
:1047A0008F7201EA020080F4805080F4005000E033
:1047B0000FE040F4004141F080013C4B03EB8402E8
:1047C000C2F8001C00BF35490968486980470020CD
:1047D0006AE700BF022067E72DE9F0412E48006834
:1047E000467926F080073C462B480068407900F067
:1047F000800038B12D4901EB8400D0F8000C00F0A6
:10480000300506E0294901EB8400D0F8000C00F4E3
:10481000405523480078A04208D91F4800684088C6
:1048200020B91DB11C480068807A10B90220BDE88B
:10483000F08106F08000A0B11C4A02EB8401D1F89F
:10484000001C48F6BF7201EA020080F0100040F43C
:10485000004141F08001154B03EB8402C2F8001CBB
:1048600014E0124A02EB8401D1F8001C4BF68F725F
:1048700001EA020080F4805040F4004141F08001E0
:104880000A4B03EB8402C2F8001C00BF034909680D
:10489000886980470020CAE7600000206C00002083
:1048A000E400002064000020580000200050004078
:1048B000E800002010B5F7480068407A40F020007A
:1048C000F44909684872F4490968C86980470020BA
:1048D00010BD10B50246EF480068438A32B9888897
:1048E000C01AEC4C24682082002010BD08681844CF
:1048F000FBE72DE9F041E748006800F11004268845
:10490000A068C0B1BEB1A588B54200D93546A8B2ED
:10491000A168884707462088401B2080608828447B
:104920006080002000F07FFF8046AAB241463846F2
:1049300000F03EFD00BF208850B14FF44050D749F1
:1049400008800021084600F07AFF3020D449088012
:104950002088A188884204DB0320CE4909680872B8
:1049600018E02088002804DD0520CA49096808727B
:1049700010E0208870B90620C64909680872002135
:10498000C848006880B2801CC74A42F81010302026
:10499000C3490880BDE8F0812DE9F047BD480068B3
:1049A00000F110052E88BB480068077AD6B9042F9D
:1049B00018D1BE48007801280FD10021B9480068FD
:1049C00080B2801CB84A42F810103020B4490880E8
:1049D00000BF0020B549087003E007271020B04948
:1049E000088027E0AC88A64201D8042000E002201D
:1049F0000746B44200D93446A0B2A9688847804629
:104A0000002000F005FF8146A2B24946404600F072
:104A1000B5FCA1B2002000F012FF2888001B2880FE
:104A200068882044688030209D49088000029B49A6
:104A3000088000BF974909680F72BDE8F08770B51C
:104A4000022694480068447892480068007800F094
:104A50007F00002844D1092C03D1FFF73CFD064616
:104A60005FE0052C14D18B480068C0787F280BDCF0
:104A700088480068807838B986480068808818B906
:104A800084480068807A08B1082565E0002648E07F
:104A9000032C0ED17F480068C078012807D17D48DB
:104AA0000068808818B9FFF705FF064639E002263E
:104AB00037E0012C35D177480068C07801280DD146
:104AC00074480068808848B972480068407A00F0ED
:104AD000200018B1FFF7D5FD064622E0022620E0AF
:104AE0006C480068007800F07F00012805D10B2C8D
:104AF00017D1FFF71FFD064613E0664800680078EF
:104B000000F07F0002280BD1012C03D1FFF7B9FD83
:104B1000064606E0032C04D1FFF75EFE064600E0E1
:104B200002264EB1E0B2624A1268516988470646D1
:104B3000032E01D109250FE00EB108250CE0062552
:104B400000215848006880B2801C574A42F8101073
:104B500030205349088000BF4E4909680D7270BD6E
:104B60002DE9F84F4B48006845780027BA46062DD6
:104B70001BD148480068007800F07F00002813D15E
:104B8000444909688878012803D149490968CF69EF
:104B90000AE0022803D1464909680F6A04E00328A5
:104BA00002D1434909684F6AADE0002D67D1394809
:104BB00000684088002862D136480068C088022812
:104BC0005DD1344800680079002858D13148006828
:104BD000007800F07F0030B92E480068808810B956
:104BE000AFF24F678FE02B480068007800F07F003D
:104BF000012811D12749096848792D4909688A692E
:104C00000021904700287ED122480068807A002841
:104C100079D0AFF27F6776E01E480068007800F038
:104C20007F0002286FD11B480068407900F00F0612
:104C300018480068407900F070091648006840790B
:104C400000F0800038B11B4901EB8600D0F8000C61
:104C500000F0300806E0174901EB8600D0F8000CA0
:104C600000F4405814480078B0424CD9B9F1000F14
:104C700049D1B8F1000F46D0AFF2E76743E0082D05
:104C80001CD104480068007800F07F00D8BBAFF268
:104C9000DB7738E0600000206C000020700000200E
:104CA00072000020505C0040006000405A0000206C
:104CB0006400002000500040E40000200A2D22D1B2
:104CC000C5480068007800F07F0001281BD1C24869
:104CD0000068807AB8B1C0480068408898B9BE487A
:104CE0000068007978B9BC480068C08801280AD1FA
:104CF000B94909684879B94909688A690021904722
:104D000008B9AFF2F17757B1B3480068A0F812A024
:104D1000B148006887610020B84700240FE0AE4A20
:104D200012685078AD4A1268116988470446032C0E
:104D300005D10920A84909680872BDE8F88FA6487E
:104D40000068008A4FF6FF71884204D10920A24909
:104D500009680872F1E7022C03D09F480068008AB6
:104D600020B908209C4909680872E6E79A4800685B
:104D7000007800F08000E0B397480068C088009099
:104D800095480068008A0099884204D992490098A1
:104D90000968088223E090480068008A8E49096803
:104DA000C98888421BDA8C480068008A8B490968E8
:104DB00091F82C10884203DA0020894908700EE02F
:104DC00085480068008A8549096891F82C1090FB95
:104DD000F1F201FB120010B90120814908707F48EF
:104DE000006890F82C107C4800688182FFF7D4FDA1
:104DF00007E0FFE703207849096808720003794952
:104E0000088000BF99E710B5774890F82C10002073
:104E100000F037FD70480068007A082805D140028C
:104E2000704908801020714908806B480068007A3A
:104E3000092801D1012010BD0020FCE738B501246C
:104E40006B48006880B2001D6A4931F8100080B2DA
:104E500001EB4000009060480068007A092832D0D9
:104E6000009800785C49096808700098401C009020
:104E7000009800785849096848700098401C0090D4
:104E8000009800EB44000090009931F8020B00916B
:104E900000F0A0FE504909684880009800EB4400EB
:104EA0000090009931F8020B009100F093FE4A49FE
:104EB00009688880009800EB440000900098008802
:104EC00045490968C8800120434909680872424879
:104ED0000068C08810B9FFF7B2FD01E0FFF740FE9F
:104EE000FFF791FF38BD30B50146434B1A780020DB
:104EF00014E00306414C04EB9353D3F8003C48F60E
:104F00008F74234048F280042343C4B22343040631
:104F10003A4D05EB9454C4F8003C401C9042E8D351
:104F200041F08003324C241F236030BD10B52A4865
:104F30000068047A022C01D0042C05D1FFF72CFD67
:104F400025480068047A1CE0062C19D12248006824
:104F5000407805280ED120480068007800F07F00D6
:104F600040B91D490968C878FFF7BDFF24490968A1
:104F7000086A80471949096888688047082400E062
:104F80000824154909680C72FFF73DFF10BD10B5E4
:104F900011480068047A022C01D0042C01D10824A5
:104FA00012E0032C01D0052C05D1FFF7A2FC0A4822
:104FB0000068047A08E0072C05D108490968C86828
:104FC0008047082400E00824034909680C72FFF7B1
:104FD0001AFF10BD70470000600000206400002030
:104FE0005A00002070000020E8000020720000201D
:104FF000505C004000600040E40000200050004091
:105000006C00002010B508480849086002200968B3
:1050100008720748074908600748084908600549B9
:1050200009680868804710BD5C050020600000200A
:10503000E800002064000020180100206C0000201F
:1050400008B50020009022E1C448008800F00F005D
:10505000C34908700846007800287CD1C148006820
:10506000C14908800846008800F03000BF49088028
:10507000BD48008800F44050BB490880B949096820
:105080004BF6BF7201EA020080F4005080F020006D
:1050900040F4004141F08001B24A1160AF480088FD
:1050A00000F0100090BB1046006848F60F710840F1
:1050B00011460860FFF73AFFAA4909684BF6BF722C
:1050C00001EA0200A849098801F4805109B180F47D
:1050D0008050A549098801F4005109B180F40050BD
:1050E000A249098801F0100109B180F010009F4920
:1050F000098801F0200109B180F0200081B241F45B
:10510000004141F08001974A116008BDFFE79548D2
:10511000006880B20090BDF8000000F40060B0B3F9
:1051200090480068C0F30E0048F68F7108408D4922
:105130000860FFF783FE8B4909684BF6BF7201EAEE
:1051400002008949098801F4805109B180F4805036
:105150008549098800E056E001F4005109B180F466
:1051600000508249098801F0100109B180F0100057
:105170007E49098801F0200109B180F0200081B248
:1051800041F4004141F08001764A1160BDE7FFE73C
:10519000BDF8000000F40040002878D07148006895
:1051A000C0F30E0048F68F7108406E490860FFF7A3
:1051B000EEFE6C4909684BF6BF7201EA02006A49CB
:1051C000098801F4805109B180F48050664909884A
:1051D00001F4005109B180F400506449098801F0DC
:1051E000100109B180F010006049098801F0200128
:1051F00009B180F0200081B241F4004141F080010A
:10520000584A116081E756480078594901EB8000FF
:10521000D0F8000C80B20090BDF8000000F400400F
:10522000C0B14F48007801EB8000D0F8000CC0F30B
:105230000E0048F68F710840494909784C4A02EB44
:105240008101C1F8000C46490978491E494A52F8C3
:1052500021008047BDF8000000F08000B8B1404850
:105260000078434901EB8000D0F8000C48F60F713C
:1052700008403B4909783E4A02EB8101C1F8000C25
:1052800037490978491E3C4A52F821008047354881
:105290004430006880B23149088000F400400028A2
:1052A0007FF4D2AE00BF30E710B500244AE047F6E5
:1052B000FF702C49443108602848008800F00F0036
:1052C0002749087008460078294901EB8000D0F88A
:1052D000000C84B204F40040C8B12148007801EB0E
:1052E0008000D0F8000CC0F30E0048F68F71084023
:1052F0001B4909781E4A02EB8101C1F8000C1849CC
:105300000978491E1B4A52F8210080471AE004F030
:105310008000B8B112480078154901EB8000D0F840
:10532000000C48F60F7108400D490978104A02EB4D
:105330008101C1F8000C0A490978491E0E4A52F849
:105340002100804707484430006880B20349088044
:1053500000F400400028AAD110BD000094000020F5
:105360005C000020005C0040700000207200002003
:1053700000500040BC000020A0000020F0B5144602
:1053800004F1010C4FEA6C07DFF848C00CEB410355
:105390003D460AE00678401C90F800C046EA0C2220
:1053A00023F8022B9B1C401C6D1E002DF2D1F0BD7A
:1053B000F0B5561C7510074E06EB41042B4605E070
:1053C00034F8047B20F8017B401C5B1E002BF7D1D6
:1053D000F0BD000000600040FA4908607047F948DD
:1053E000006880B27047F749091D08607047F548AA
:1053F000001D006880B27047F2480830006880B233
:105400007047F0490C3108607047EE480C30006876
:1054100080B270474FF6F8710140EA4A10321160CD
:105420007047E8481030006880B27047E64B03EBE5
:105430008002C2F8001C70470146E34A02EB81007B
:10544000D0F8000C80B2704710B5DF4B03EB800240
:10545000D2F8002C48F68F131A400A43DA4C04EBBA
:105460008003C3F8002C10BD0146D74A02EB81002F
:10547000D0F8000C00F4C060704730B5D24C04EB9B
:105480008003D3F8003C48F6BF7403EA040201F03D
:1054900010030BB182F0100201F020030BB182F077
:1054A000200242F4004343F08003C74D05EB800423
:1054B000C4F8003C30BD30B5C34C04EB8003D3F8D6
:1054C000003C4BF68F7403EA040201F480530BB1E5
:1054D00082F4805201F400530BB182F4005242F482
:1054E000004343F08003B84D05EB8004C4F8003C52
:1054F00030BD30B503460C461846FFF79DFF054604
:10550000012C07D125F48050AF4A02EB8301C1F88A
:10551000000C08E0022C06D125F01000AA4A02EB8C
:105520008301C1F8000C30BD0146A74A02EB81009F
:10553000D0F8000C00F0300070470146A24A02EBA0
:105540008100D0F8000C00F44050704710B59E4B1D
:1055500003EB8002D2F8002C48F6BF7302EA030185
:1055600081F0100181F0200141F4004242F08002FC
:10557000954C04EB8003C3F8002C10BD10B5924B82
:1055800003EB8002D2F8002C4BF68F7302EA030182
:1055900081F4805181F4005141F4004242F08002D4
:1055A000894C04EB8003C3F8002C10BD864A02EB43
:1055B0008001D1F8001C41F4807148F68F721140CF
:1055C00048F280021143804B03EB8002C2F8001CBA
:1055D00070477D4A02EB8001D1F8001C48F68F62CB
:1055E000114048F280021143774B03EB8002C2F86E
:1055F000001C7047744A02EB8001D1F8001C48F689
:105600008F62114048F2800211436F4B03EB80021E
:10561000C2F8001C70476C4A02EB8001D1F8001CF4
:1056200041F4807148F68F72114048F280021143B4
:10563000654B03EB8002C2F8001C7047624A02EB24
:105640008001D1F8001C41F4807148F68F7211403E
:1056500048F2800211435C4B03EB8002C2F8001C4D
:105660007047594A02EB8001D1F8001C48F68F625E
:10567000114048F280021143534B03EB8002C2F801
:10568000001C70470146504A02EB8100D0F8000C24
:1056900000F03000102801D1012070470020FCE705
:1056A0000146494A02EB8100D0F8000C00F440505A
:1056B000B0F5805F01D1012070470020FCE7424A2D
:1056C00002EB8001D1F8001CC1F30E0148F68F7285
:1056D00011403D4B03EB8002C2F8001C70473A4A70
:1056E00002EB8001D1F8001C48F60F721140364BD6
:1056F00003EB8002C2F8001C7047334A02EB8001C2
:10570000D1F8001C48F68F7211404CF28002114310
:105710002D4B03EB8002C2F8001C70472A4A02EBB3
:105720008001D1F8001C48F68F72114048F2C00287
:105730001143254B03EB8002C2F8001C7047224A3C
:1057400002EB8001D1F8001C01F4804171B102EB41
:105750008001D1F8001C48F68F7211404CF2800293
:105760001143194B03EB8002C2F8001C7047164A24
:1057700002EB8001D1F8001C01F0400171B102EB95
:105780008001D1F8001C48F68F72114048F2C00227
:1057900011430D4B03EB8002C2F8001C704710B59B
:1057A000094B03EB8002D2F8002C48F68F731A40A5
:1057B00048F280031A430A43034C04EB8003C3F806
:1057C000002C10BD405C0040005000400146FC4AE7
:1057D00002EB8100D0F8000C00F00F00704710B50C
:1057E0004A105200F74B1B689BB203EBC003F64C08
:1057F00044F8132010BD10B54A105300F14A126846
:1058000092B202EBC002121DEF4C44F8123010BDF0
:105810000146EC48006880B200EBC100EA4A32F869
:10582000100080B270470146E648006880B200EB85
:10583000C100001DE44A32F8100080B27047E14A0E
:10584000126892B202EBC002921CDF4B43F81210B6
:10585000704702463E290BDD481101F01F030BB9CA
:10586000431E98B24FF4004343EA8023136007E0DD
:10587000481001F001030BB1431C98B2830213607E
:10588000704710B50246CF48006880B200EBC200F6
:10589000801DCD4C04EB40033E290BDD481101F087
:1058A0001F040CB9441EA0B24FF4004444EA802403
:1058B0001C6007E0481001F001040CB1441CA0B2C8
:1058C00084021C6010BD0146BE48006880B200EB37
:1058D000C100801CBC4A32F81000C0F309007047B8
:1058E0000146B848006880B200EBC100801DB64A8E
:1058F00032F81000C0F30900704730B54B105B0060
:10590000B04C2468A4B204EBC004AF4D45F8143089
:1059100053105C00AB4B1B689BB203EBC0031B1D19
:1059200045F8134030BD10B54A105200A54B1B6816
:105930009BB203EBC003A44C44F8132010BD10B578
:105940004A1053009F4A126892B202EBC002121D25
:105950009D4C44F8123010BD01469A48006880B250
:1059600000EBC100984A32F8100080B2704701463F
:105970009448006880B200EBC100001D924A32F8E2
:10598000100080B2704730B50B46012B1FD18D49F6
:10599000096889B201EBC001891C8B4D05EB4104FC
:1059A0003E2A0BDD511102F01F050DB94D1EA9B2A3
:1059B0004FF4004545EA8125256007E0511002F0CB
:1059C00001050DB14D1CA9B28D0225600AE0022B24
:1059D00008D17C49096889B201EBC001891C7A4C65
:1059E00044F81120012B1FD17649096889B201EBD7
:1059F000C001891D744D05EB41043E2A0BDD511198
:105A000002F01F050DB94D1EA9B24FF4004545EA3D
:105A10008125256007E0511002F001050DB14D1CF4
:105A2000A9B28D0225600AE0022B08D165490968F8
:105A300089B201EBC001891D634C44F8112030BDCF
:105A400030B5034601291FD15E48006880B200EBE3
:105A5000C300801C5C4D05EB40043E2A0BDD501159
:105A600002F01F050DB9451EA8B24FF4004545EAE6
:105A70008025256007E0501002F001050DB1451C9E
:105A8000A8B2850225600AE0022908D14D480068C5
:105A900080B200EBC300801C4B4C44F8102030BD9A
:105AA00030B5034601291FD14648006880B200EB9B
:105AB000C300801D444D05EB40043E2A0BDD501110
:105AC00002F01F050DB9451EA8B24FF4004545EA86
:105AD0008025256007E0501002F001050DB1451C3E
